:100000000C942A000C9434000C9434000C943400AA
:100010000C9434000C9434000C9434000C94340090
:100020000C9434000C9434000C9434000C94340080
:100030000C9434000C9434000C9434000C94340070
:100040000C9434000C9434000C9434000C94340060
:100050000C94340011241FBECFE5D8E0DEBFCDBF25
:100060000E9436000C9468000C9400008FE18ABB5B
:1000700020E030E0B1E048EC50E0A2E074E068E05D
:10008000BBBB80ED97E0FA013197F1F70197D9F703
:10009000ABBB80ED97E0FA013197F1F70197D9F703
:1000A0007BBB80ED97E0FA013197F1F70197D9F723
:1000B0006BBB80ED97E0FA013197F1F70197D9F723
:1000C0002F5F3F4F25303105DCF220E030E0D8CF04
:0400D000F894FFCFD2
:00000001FF
